{
  "contractName": "MultisigWallet",
  "abi": [
    {
      "inputs": [
        {
          "internalType": "address",
          "name": "owners1",
          "type": "address"
        },
        {
          "internalType": "address",
          "name": "owners2",
          "type": "address"
        },
        {
          "internalType": "address",
          "name": "owners3",
          "type": "address"
        },
        {
          "internalType": "uint256",
          "name": "_limit",
          "type": "uint256"
        }
      ],
      "stateMutability": "nonpayable",
      "type": "constructor"
    },
    {
      "anonymous": false,
      "inputs": [
        {
          "indexed": false,
          "internalType": "uint256",
          "name": "_id",
          "type": "uint256"
        },
        {
          "indexed": false,
          "internalType": "uint256",
          "name": "_approvals",
          "type": "uint256"
        },
        {
          "indexed": false,
          "internalType": "address",
          "name": "_approver",
          "type": "address"
        }
      ],
      "name": "ApprovalRecieved",
      "type": "event"
    },
    {
      "anonymous": false,
      "inputs": [
        {
          "indexed": false,
          "internalType": "uint256",
          "name": "_id",
          "type": "uint256"
        }
      ],
      "name": "TransferApproved",
      "type": "event"
    },
    {
      "anonymous": false,
      "inputs": [
        {
          "indexed": false,
          "internalType": "uint256",
          "name": "_id",
          "type": "uint256"
        },
        {
          "indexed": false,
          "internalType": "uint256",
          "name": "_amount",
          "type": "uint256"
        },
        {
          "indexed": false,
          "internalType": "address",
          "name": "_initiator",
          "type": "address"
        },
        {
          "indexed": false,
          "internalType": "address",
          "name": "_receiver",
          "type": "address"
        }
      ],
      "name": "TransferRequestsCreated",
      "type": "event"
    },
    {
      "inputs": [
        {
          "internalType": "uint256",
          "name": "",
          "type": "uint256"
        }
      ],
      "name": "owners",
      "outputs": [
        {
          "internalType": "address",
          "name": "",
          "type": "address"
        }
      ],
      "stateMutability": "view",
      "type": "function"
    },
    {
      "inputs": [],
      "name": "deposit",
      "outputs": [],
      "stateMutability": "payable",
      "type": "function"
    },
    {
      "inputs": [
        {
          "internalType": "uint256",
          "name": "_amount",
          "type": "uint256"
        },
        {
          "internalType": "address payable",
          "name": "_receiver",
          "type": "address"
        }
      ],
      "name": "createTransfer",
      "outputs": [],
      "stateMutability": "nonpayable",
      "type": "function"
    },
    {
      "inputs": [
        {
          "internalType": "uint256",
          "name": "_id",
          "type": "uint256"
        }
      ],
      "name": "approve",
      "outputs": [],
      "stateMutability": "nonpayable",
      "type": "function"
    },
    {
      "inputs": [],
      "name": "getTransferRequests",
      "outputs": [
        {
          "components": [
            {
              "internalType": "uint256",
              "name": "amount",
              "type": "uint256"
            },
            {
              "internalType": "address payable",
              "name": "receiver",
              "type": "address"
            },
            {
              "internalType": "uint256",
              "name": "approvals",
              "type": "uint256"
            },
            {
              "internalType": "bool",
              "name": "hasBeenSent",
              "type": "bool"
            },
            {
              "internalType": "uint256",
              "name": "id",
              "type": "uint256"
            }
          ],
          "internalType": "struct MultisigWallet.Transfer[]",
          "name": "",
          "type": "tuple[]"
        }
      ],
      "stateMutability": "view",
      "type": "function"
    },
    {
      "inputs": [
        {
          "internalType": "address",
          "name": "owner",
          "type": "address"
        }
      ],
      "name": "balanceOf",
      "outputs": [
        {
          "internalType": "uint256",
          "name": "",
          "type": "uint256"
        }
      ],
      "stateMutability": "view",
      "type": "function"
    }
  ],
  "bytecode": "0x60806040523480156200001157600080fd5b50604051620010c7380380620010c7833981810160405281019062000037919062000216565b6000849080600181540180825580915050600190039060005260206000200160009091909190916101000a81548173ffffffffffffffffffffffffffffffffffffffff021916908373ffffffffffffffffffffffffffffffffffffffff1602179055506000839080600181540180825580915050600190039060005260206000200160009091909190916101000a81548173ffffffffffffffffffffffffffffffffffffffff021916908373ffffffffffffffffffffffffffffffffffffffff1602179055506000829080600181540180825580915050600190039060005260206000200160009091909190916101000a81548173ffffffffffffffffffffffffffffffffffffffff021916908373ffffffffffffffffffffffffffffffffffffffff160217905550806001819055505050505062000288565b600080fd5b600073ffffffffffffffffffffffffffffffffffffffff82169050919050565b6000620001a38262000176565b9050919050565b620001b58162000196565b8114620001c157600080fd5b50565b600081519050620001d581620001aa565b92915050565b6000819050919050565b620001f081620001db565b8114620001fc57600080fd5b50565b6000815190506200021081620001e5565b92915050565b6000806000806080858703121562000233576200023262000171565b5b60006200024387828801620001c4565b94505060206200025687828801620001c4565b93505060406200026987828801620001c4565b92505060606200027c87828801620001ff565b91505092959194509250565b610e2f80620002986000396000f3fe6080604052600436106100555760003560e01c8063025e7c271461005a5780634c12fa471461009757806370a08231146100c0578063a04ef145146100fd578063b759f95414610128578063d0e30db014610151575b600080fd5b34801561006657600080fd5b50610081600480360381019061007c91906108ff565b61015b565b60405161008e919061096d565b60405180910390f35b3480156100a357600080fd5b506100be60048036038101906100b991906109c6565b61019a565b005b3480156100cc57600080fd5b506100e760048036038101906100e29190610a32565b6103bf565b6040516100f49190610a6e565b60405180910390f35b34801561010957600080fd5b506101126103e0565b60405161011f9190610bd9565b60405180910390f35b34801561013457600080fd5b5061014f600480360381019061014a91906108ff565b6104ce565b005b6101596108c2565b005b6000818154811061016b57600080fd5b906000526020600020016000915054906101000a900473ffffffffffffffffffffffffffffffffffffffff1681565b6000805b600080549050811015610238573373ffffffffffffffffffffffffffffffffffffffff16600082815481106101d6576101d5610bfb565b5b9060005260206000200160009054906101000a900473ffffffffffffffffffffffffffffffffffffffff1673ffffffffffffffffffffffffffffffffffffffff16036102255760019150610238565b808061023090610c59565b91505061019e565b506001151581151514610280576040517f08c379a000000000000000000000000000000000000000000000000000000000815260040161027790610cfe565b60405180910390fd5b7f32e340cac9a0540003161460e7fc9f3d43c9db6168397b7115d76679581f596c6002805490508433856040516102ba9493929190610d7d565b60405180910390a160026040518060a001604052808581526020018473ffffffffffffffffffffffffffffffffffffffff1681526020016000815260200160001515815260200160028054905081525090806001815401808255809150506001900390600052602060002090600502016000909190919091506000820151816000015560208201518160010160006101000a81548173ffffffffffffffffffffffffffffffffffffffff021916908373ffffffffffffffffffffffffffffffffffffffff1602179055506040820151816002015560608201518160030160006101000a81548160ff021916908315150217905550608082015181600401555050505050565b60008173ffffffffffffffffffffffffffffffffffffffff16319050919050565b60606002805480602002602001604051908101604052809291908181526020016000905b828210156104c557838290600052602060002090600502016040518060a0016040529081600082015481526020016001820160009054906101000a900473ffffffffffffffffffffffffffffffffffffffff1673ffffffffffffffffffffffffffffffffffffffff1673ffffffffffffffffffffffffffffffffffffffff168152602001600282015481526020016003820160009054906101000a900460ff1615151515815260200160048201548152505081526020019060010190610404565b50505050905090565b6000805b60008054905081101561056c573373ffffffffffffffffffffffffffffffffffffffff166000828154811061050a57610509610bfb565b5b9060005260206000200160009054906101000a900473ffffffffffffffffffffffffffffffffffffffff1673ffffffffffffffffffffffffffffffffffffffff1603610559576001915061056c565b808061056490610c59565b9150506104d2565b5060011515811515146105b4576040517f08c379a00000000000000000000000000000000000000000000000000000000081526004016105ab90610cfe565b60405180910390fd5b60001515600360003373ffffffffffffffffffffffffffffffffffffffff1673ffffffffffffffffffffffffffffffffffffffff168152602001908152602001600020600084815260200190815260200160002060009054906101000a900460ff1615151461062257600080fd5b600015156002838154811061063a57610639610bfb565b5b906000526020600020906005020160030160009054906101000a900460ff1615151461066557600080fd5b6001600360003373ffffffffffffffffffffffffffffffffffffffff1673ffffffffffffffffffffffffffffffffffffffff168152602001908152602001600020600084815260200190815260200160002060006101000a81548160ff021916908315150217905550600282815481106106e2576106e1610bfb565b5b9060005260206000209060050201600201600081548092919061070490610c59565b91905055507faf7140a50d53d80db2d043fb8f79454a19799336e888a4036bc8c487901fb915826002848154811061073f5761073e610bfb565b5b9060005260206000209060050201600201543360405161076193929190610dc2565b60405180910390a1600154600283815481106107805761077f610bfb565b5b906000526020600020906005020160020154106108be576001600283815481106107ad576107ac610bfb565b5b906000526020600020906005020160030160006101000a81548160ff021916908315150217905550600282815481106107e9576107e8610bfb565b5b906000526020600020906005020160010160009054906101000a900473ffffffffffffffffffffffffffffffffffffffff1673ffffffffffffffffffffffffffffffffffffffff166108fc6002848154811061084857610847610bfb565b5b9060005260206000209060050201600001549081150290604051600060405180830381858888f19350505050158015610885573d6000803e3d6000fd5b507fd9bbf1d8bef570b7e92ef1ba025425fc15915ae01f3d3be144cdc8be05442eb5826040516108b59190610a6e565b60405180910390a15b5050565b565b600080fd5b6000819050919050565b6108dc816108c9565b81146108e757600080fd5b50565b6000813590506108f9816108d3565b92915050565b600060208284031215610915576109146108c4565b5b6000610923848285016108ea565b91505092915050565b600073ffffffffffffffffffffffffffffffffffffffff82169050919050565b60006109578261092c565b9050919050565b6109678161094c565b82525050565b6000602082019050610982600083018461095e565b92915050565b60006109938261092c565b9050919050565b6109a381610988565b81146109ae57600080fd5b50565b6000813590506109c08161099a565b92915050565b600080604083850312156109dd576109dc6108c4565b5b60006109eb858286016108ea565b92505060206109fc858286016109b1565b9150509250929050565b610a0f8161094c565b8114610a1a57600080fd5b50565b600081359050610a2c81610a06565b92915050565b600060208284031215610a4857610a476108c4565b5b6000610a5684828501610a1d565b91505092915050565b610a68816108c9565b82525050565b6000602082019050610a836000830184610a5f565b92915050565b600081519050919050565b600082825260208201905092915050565b6000819050602082019050919050565b610abe816108c9565b82525050565b610acd81610988565b82525050565b60008115159050919050565b610ae881610ad3565b82525050565b60a082016000820151610b046000850182610ab5565b506020820151610b176020850182610ac4565b506040820151610b2a6040850182610ab5565b506060820151610b3d6060850182610adf565b506080820151610b506080850182610ab5565b50505050565b6000610b628383610aee565b60a08301905092915050565b6000602082019050919050565b6000610b8682610a89565b610b908185610a94565b9350610b9b83610aa5565b8060005b83811015610bcc578151610bb38882610b56565b9750610bbe83610b6e565b925050600181019050610b9f565b5085935050505092915050565b60006020820190508181036000830152610bf38184610b7b565b905092915050565b7f4e487b7100000000000000000000000000000000000000000000000000000000600052603260045260246000fd5b7f4e487b7100000000000000000000000000000000000000000000000000000000600052601160045260246000fd5b6000610c64826108c9565b91507fffffffffffffffffffffffffffffffffffffffffffffffffffffffffffffffff8203610c9657610c95610c2a565b5b600182019050919050565b600082825260208201905092915050565b7f556e617574686f72697a65640000000000000000000000000000000000000000600082015250565b6000610ce8600c83610ca1565b9150610cf382610cb2565b602082019050919050565b60006020820190508181036000830152610d1781610cdb565b9050919050565b6000819050919050565b6000610d43610d3e610d398461092c565b610d1e565b61092c565b9050919050565b6000610d5582610d28565b9050919050565b6000610d6782610d4a565b9050919050565b610d7781610d5c565b82525050565b6000608082019050610d926000830187610a5f565b610d9f6020830186610a5f565b610dac604083018561095e565b610db96060830184610d6e565b95945050505050565b6000606082019050610dd76000830186610a5f565b610de46020830185610a5f565b610df1604083018461095e565b94935050505056fea2646970667358221220e70a68af042268f14533a857d78b74b9340731ee3611013c3077ea90af4d0f2464736f6c634300080f0033",
  "immutableReferences": {},
  "source": "pragma solidity 0.8.15;\npragma abicoder v2;\n\ncontract MultisigWallet {\n    address[] public owners;\n    uint limit;\n    \n    struct Transfer{\n        uint amount;\n        address payable receiver;\n        uint approvals;\n        bool hasBeenSent;\n        uint id;\n    }\n    \n    event TransferRequestsCreated(uint _id, uint _amount, address _initiator, address _receiver);\n    event ApprovalRecieved(uint _id, uint _approvals, address _approver);\n    event TransferApproved(uint _id);\n\n    Transfer[] transferRequests;\n    \n    mapping(address => mapping(uint => bool)) approvals;\n    \n    //Should only allow people in the owners list to continue the execution.\n\n    modifier onlyOwners(){ \n        bool _isOwner = false;\n        for(uint i = 0; i < owners.length ; i++){\n            if (owners[i] == msg.sender) {\n                _isOwner = true;\n                break;\n            }\n        }\n        require(_isOwner == true, \"Unauthorized\");\n        _; \n    }\n\n    //Should initialize the owners list and the limit \n    // constructor(address[] memory _owners, uint _limit) {\n    //     owners = _owners;\n    //     limit = _limit;\n    // }\n\n    constructor(address owners1, address owners2, address owners3, uint _limit) {\n        owners.push(owners1);\n        owners.push(owners2);\n        owners.push(owners3);\n        limit = _limit;\n    }\n    \n    //Empty function\n    function deposit() public payable {}\n    \n    //Create an instance of the Transfer struct and add it to the transferRequests array\n\n    function createTransfer(uint _amount, address payable _receiver) public onlyOwners {\n        emit TransferRequestsCreated(transferRequests.length, _amount, msg.sender, _receiver);\n        transferRequests.push(Transfer(_amount, _receiver, 0, false, transferRequests.length));\n        \n\n    }\n    \n    //Set your approval for one of the transfer requests.\n    //Need to update the Transfer object.\n    //Need to update the mapping to record the approval for the msg.sender.\n    //When the amount of approvals for a transfer has reached the limit, this function should send the transfer to the recipient.\n    //An owner should not be able to vote twice.\n    //An owner should not be able to vote on a tranfer request that has already been sent.\n\n    function approve(uint _id) public onlyOwners {\n        require(approvals[msg.sender][_id] == false);\n        require(transferRequests[_id].hasBeenSent == false);\n\n        approvals[msg.sender][_id] = true;\n        transferRequests[_id].approvals ++;\n\n        emit ApprovalRecieved(_id, transferRequests[_id].approvals, msg.sender);\n\n        if(transferRequests[_id].approvals >= limit) {\n            transferRequests[_id].hasBeenSent = true;\n            transferRequests[_id].receiver.transfer(transferRequests[_id].amount);\n            emit TransferApproved(_id);\n        }\n    }\n    \n    //Should return all transfer requests\n\n    function getTransferRequests() public view returns (Transfer[] memory){\n        return transferRequests;\n    }\n\n    function balanceOf(address owner) public view returns (uint) { // This method used for return the total balance of token owner.\n        return owner.balance;\n    }\n}",
  "sourcePath": "/home/eba/authic/ethereum-201/multisig-wallet/contracts/Wallet.sol",
  "compiler": {
    "name": "solc",
    "version": "0.8.15+commit.e14f2714.Emscripten.clang"
  },
  "schemaVersion": "3.4.8",
  "updatedAt": "2022-07-08T11:58:02.642Z",
  "devdoc": {
    "kind": "dev",
    "methods": {},
    "version": 1
  },
  "userdoc": {
    "kind": "user",
    "methods": {},
    "version": 1
  }
}